:10000000F9C000001CC100001AC1000018C10000A6
:1000100016C1000014C1000012C1000010C1000090
:100020000EC100000CC100000AC1000008C10000A0
:1000300006C1000004C1000002C1000000C10000B0
:10004000FEC00000FCC00000FAC00000F8C00000C4
:10005000F6C00000F4C00000F2C00000F0C00000D4
:10006000EEC00000ECC00000EAC00000E8C00000E4
:10007000E6C00000E4C00000E2C00000E0C00000F4
:10008000DEC00000DCC00000DAC00000D8C0000004
:10009000D6C00000D4C00000D2C00000D0C0000014
:1000A000CEC00000CCC00000CAC00000C8C0000024
:1000B000C6C00000C4C00000C2C00000C0C0000034
:1000C000BEC00000BCC00000BAC00000B8C0000044
:1000D000B6C00000B4C00000B2C00000B0C0000054
:1000E000AEC00000ACC00000AAC00000A8C0000064
:1000F000A6C00000A4C00000A2C00000A0C0000074
:100100009EC000009CC000009AC0000098C0000083
:1001100096C0000094C0000092C0000090C0000093
:100120008EC000008CC000008AC0000088C00000A3
:1001300074C6000084C0000082C0000080C00000BF
:100140007EC000007CC000007AC0000078C00000C3
:1001500076C0000074C0000072C0000070C00000D3
:100160006EC000006CC000006AC0000068C00000E3
:1001700066C0000064C0000062C0000060C00000F3
:100180005EC000005CC000005AC0000058C0000003
:1001900056C0000054C0000052C0000050C0000013
:1001A0004EC000004CC000004AC0000048C0000023
:1001B00046C0000044C0000042C0000040C0000033
:1001C0003EC000003CC000003AC0000038C0000043
:1001D00036C0000034C0000032C0000030C0000053
:1001E0002EC000002CC000002AC0000028C0000063
:1001F00026C0000011241FBECFEFCDBFDFE3DEBF5E
:1002000000E00CBF18BE19BE1ABE1BBE10E2A0E073
:10021000B0E2E4E6F8E100E00BBF02C007900D9207
:10022000A432B107D9F71BBE20E2A4E2B0E201C0BC
:100230001D92A93CB207E1F7AAD50C94300CE0CE90
:10024000FC01818185FFFDCF608380E090E008950F
:100250004F925F926F927F928F929F92AF92BF92D6
:10026000CF92DF92EF92FF920F931F93CF93DF9382
:10027000EC014A015B0128013901D901C8016894E8
:1002800012F8B695A795979587951694D1F7B90169
:10029000A801032E36E176956795579547953A95CF
:1002A000D1F7302D2C8122FD08C0B695A7959795E2
:1002B0008795769567955795479588159905AA0569
:1002C000BB0508F4A2C084169506A606B70608F476
:1002D0009EC08C8182FD04C0880C991CAA1CBB1C8A
:1002E000C301B201A5019401E3D72F3F31054105B8
:1002F000510508F48EC0C12CD12C7601CA9419EF97
:1003000005C02C153D054E055F0568F0CC0CDD1CC5
:10031000EE1CFF1C1D3F14F46894C0F81F5F1730DB
:1003200081F7212F4EC0212F11230CF04AC0D50197
:10033000C401880F991FAA1FBB1F880F991FAA1FEE
:10034000BB1F880F991FAA1FBB1F481A590A6A0AA8
:100350007B0A1E3FECF46DEF7FEF611B710917FD07
:10036000739504C0440C551C661C771C6A95D2F723
:10037000D501C401B695A79597958795BC01CD0188
:10038000640D751D861D971DA501940191D734C07C
:1003900023E0210FD501C40104C0880F991FAA1FB3
:1003A000BB1F2A95D2F79C01AD01B695A7959795ED
:1003B0008795BC01CD01640D751D861D971D78D7ED
:1003C0001BC02D5FD501C40104C0880F991FAA1F4F
:1003D000BB1F2A95D2F79C01AD01B695A7959795BD
:1003E0008795BC01CD01640D751D861D971D60D7D5
:1003F0002150310941095109832F8F701295107FC7
:10040000182B1F832E8381E018C080E016C080E087
:1004100014C0D501C401880F991FAA1FBB1F880FE4
:10042000991FAA1FBB1F880F991FAA1FBB1F481A1D
:10043000590A6A0A7B0A19EF8ECFDF91CF911F917B
:100440000F91FF90EF90DF90CF90BF90AF909F9073
:100450008F907F906F905F904F9008950F931F93B0
:10046000CF93DF931816190664F4C5E2D0E28C012D
:100470000B5D1F4D699180EA9AE0E2DEC017D1075B
:10048000C9F7DF91CF911F910F9108952F923F925D
:100490004F925F926F927F928F929F92AF92BF9294
:1004A000CF92DF92EF92FF920F931F93CF93DF9340
:1004B000CDB7DEB76497CDBFDEBF4C013B014D87A2
:1004C0005E871901B80180E090E0DDD520E030E0E2
:1004D00040E853E48AD6A6D52AA53BA54CA55DA540
:1004E000261B370B480B590BCA01B901CED56983BE
:1004F0007A838B839C83B70180E090E0C4D520E0B1
:1005000030E040E054E371D629813A814B815C812F
:100510006CD620E030E04AEF54E4B4D420E030E080
:1005200048EC52E417D569877A878B879C87B3019B
:1005300080E090E0A8D520E030E040E855E455D6D2
:10054000698B7A8B8B8B9C8B20E030E040E05CE306
:1005500069817A818B819C8148D620E030E040E837
:100560005DE343D62B013C01B10180E090E08BD5E7
:100570009B01AC01C301B20138D69B01AC01698972
:100580007A898B899C897ED44DD52B013C01B4019D
:1005900080E090E078D520E030E040E855E425D6D2
:1005A0006D837E838F83988720E030E040E85BE3B3
:1005B00069817A818B819C8118D620E030E040E00F
:1005C0005EE313D669837A838B839C834D855E8536
:1005D000BA0180E090E057D59B01AC0169817A8136
:1005E0008B819C8102D69B01AC016D817E818F81C4
:1005F000988548D417D569837A838B839C8320E0C0
:1006000030E040EA51E469857A858B859C859ED4EB
:1006100088230CF0A7C020E030E04AEF54E469855D
:100620007A858B859C852DD49B01AC01DED56D83AD
:100630007E838F83988720E030E040E05FE3D5D56C
:1006400020E030E040EA50E4D0D5ECD46D877E87DE
:100650008F87988B20E030E040E85EE36D817E81FB
:100660008F819885C2D520E030E040EA50E4BDD5C6
:10067000D9D46D837E838F83988720E030E040E774
:1006800051EC69857A858B859C8560D488230CF034
:1006900051C020E030E84BEB54E469857A858B85C6
:1006A0009C85F0D39B01AC01A0D5698B7A8B8B8B99
:1006B0009C8B6D857E858F859889E7D46D877E8735
:1006C0008F87988B20E030E040EE50E469897A898A
:1006D0008B899C898AD59B01AC016D857E858F8530
:1006E0009889D0D39FD46D877E878F87988B6D81B3
:1006F0007E818F819885C9D46D837E838F8398870F
:1007000020E030E040E05FE369897A898B899C8949
:100710006CD520E030E040E351E467D59B01AC01AB
:100720006D817E818F819885ADD37CD46D837E83EE
:100730008F8398878D859E85AF85B889481A590A19
:100740006A0A7B0A29813A814B815C818D819E8175
:10075000AF81B885281B390B4A0B5B0B29833A8381
:100760004B835C8369817A818B819C818ED420E06C
:1007700030E040E055E339D520E030E040E058E398
:1007800034D520E030E040E051E42FD569837A830E
:100790008B839C83C601B50178D49B01AC01698130
:1007A0007A818B819C8121D56B017C01C301B201CF
:1007B0006CD420E030E040E058E317D520E030E092
:1007C00040E851E412D59B01AC01C701B60159D3F1
:1007D00020E030E048EC52E4BDD320E030E048ECCB
:1007E00052E403D56B017C011DD4462E572E782E82
:1007F000692E8091002090910120019761F4C092B0
:100800008B20D0928C20E0928D20F0928E2010923E
:100810000020109201200BE810E2D8018D909D90ED
:10082000AD90BC90A5019401C701B6012AD322EB7B
:100830003AE548EF5EE3D9D49B01AC01C501B401B0
:1008400021D360938F207093902080939120909378
:100850009220F80160837183828393836F927F92E9
:100860005F924F9285E090E29F938F9305E210E2B2
:100870001F930F933FD5F2DD6DE080EA9AE0E0DC54
:1008800020E030E048EC52E469857A858B859C85D0
:10089000ACD4C8D39F938F937F936F9383E190E2FF
:1008A0009F938F931F930F9325D5D8DD6DE080EA3A
:1008B0009AE0C6DCCDBFDEBF6496CDBFDEBFDF9160
:1008C000CF911F910F91FF90EF90DF90CF90BF904D
:1008D000AF909F908F907F906F905F904F903F90E0
:1008E0002F900895E0E5F0E0808182608083E1E56B
:1008F000F0E0808181FFFDCF88ED84BF81E08093AF
:100900004000E0E5F0E08081827E808308958CE203
:100910008093610688E08093810688E88093A10631
:1009200008950F931F93CF93DF93C0EADAE08D8190
:100930008F738D8383E08D8300E018E428EE31E02F
:1009400040E855E260E070E080EA9AE081DC8C816A
:1009500088608C838C8180618C83DF91CF911F9123
:100960000F9108950F9300E021E044E050E267E723
:1009700083EA90E241D1EAEBF0E280818111FDCF80
:100980008FEB9DE50197F1F700C0000088E08093B0
:1009900065060F9108954F925F926F927F928F92AA
:1009A0009F92AF92BF92CF92DF92EF92FF920F93FE
:1009B000CF93DF9382EA809303200F2EF7E96F2E07
:1009C000F0E27F2EF02D0F2EF3EA8F2EF0E29F2E15
:1009D000F02DCAEBD0E20F2EFEEAAF2EF0E2BF2ED2
:1009E000F02D0F2EFCEBCF2EF0E2DF2EF02D0F2E90
:1009F000FFEAEF2EF0E2FF2EF02D0F2EFDEB4F2E33
:100A0000F0E25F2EF02D02E021E043E050E267E7E4
:100A100083EA90E2F1D088818111FDCF809103209B
:100A20008E5F80930320F5018081F6018083F701BA
:100A30002081F201208390E0982F8827820F911D5A
:100A4000F301819391933F01E815F905E1F6DF91F8
:100A5000CF910F91FF90EF90DF90CF90BF90AF902C
:100A60009F908F907F906F905F904F9008952F92FE
:100A70003F924F925F926F927F928F929F92AF922E
:100A8000BF92CF92DF92EF92FF920F93CF93DF93BB
:100A900088E4809302200F2EF1EC6F2EF0E27F2E7F
:100AA000F02D0F2EF9EC8F2EF0E29F2EF02DCAEBD9
:100AB000D0E20F2EFEEAAF2EF0E2BF2EF02D0F2E69
:100AC000FEEBCF2EF0E2DF2EF02D0F2EFFEAEF2E01
:100AD000F0E2FF2EF02D0F2EFFEB4F2EF0E25F2EF7
:100AE000F02D0F2EF0EB2F2EF0E23F2EF02D00E038
:100AF00021E042E050E267E783EA90E27DD088811E
:100B00008111FDCF2FEF89EF90E021508040904080
:100B1000E1F700C0000003E021E044E250E267E7B3
:100B200083EA90E269D088818111FDCF8091022013
:100B3000805F80930220F5018081F6018083F701B8
:100B40003081F2013083F1012081E0ECF0E220837A
:100B500090E0A0E0B0E0BA2FA92F982F8827830F4C
:100B6000911DA11DB11DBA2FA92F982F8827820F83
:100B7000911DA11DB11DF30181939193A193B19397
:100B80003F01E815F90509F0B2CFDF91CF910F9140
:100B9000FF90EF90DF90CF90BF90AF909F908F909D
:100BA0007F906F905F904F903F902F9008959ADEC6
:100BB000E2EAF0E0808187608083A9DEB2DE78948B
:100BC0002BE940E460E974E083EA90E204D0E0E9D4
:100BD000F4E010860895FC01608371834863DB01B3
:100BE00011964C93A081B18115962C930190F081C0
:100BF000E02D81E0848308950F93CF93DF93FC0170
:100C0000293098F5093098F58789811132C081E043
:100C1000878B108E660F6283222369F0A42FB52F75
:100C200040E050E08D91EF01C40FD51F8B834F5FE3
:100C30005F4F4217B8F3238B048B158A168A83897A
:100C4000882341F082818E7F0190F081E02D8683A0
:100C500081E012C08489882371F0828181600190D3
:100C6000F081E02D868381E007C080E005C080E050
:100C700003C080E001C081E0DF91CF910F91089522
:100C8000FC01A081B18114968C91149782FF03C05E
:100C900094E0908F02C093E0908F886014968C93BC
:100CA000178A0895CF93DF93FC0193892489A0814B
:100CB000B18114968C91149784FF07C083E013963A
:100CC0008C9385E0808F178A1CC08589891758F41A
:100CD0008589EF01C80FD11D8B8117968C9385896B
:100CE0008F5F858B0EC08689821728F48281816090
:100CF00016968C9306C083E013968C9381E0808FC8
:100D0000178ADF91CF910895FC018689883070F4AD
:100D1000A081B18117968C919689DF01A90FB11D31
:100D20001B968C9386898F5F868B08C0A081B181CA
:100D300083E013968C9382E0808F178A948986894A
:100D4000891730F40190F081E02D82E083830895CB
:100D5000A081B18187E013968C9381E0808F178A00
:100D60000895DC01ED91FC912481322F3C7011F04B
:100D700087CF089526FF02C095CF0895222314F44B
:100D8000C3CF089526E0FC01208F178A08950FDF56
:100D9000E9DD0F2EF1EC6F2EF0E27F2EF02D0F2EFD
:100DA000F1EA8F2EF0E29F2EF02D0F2EFFE94F2E4D
:100DB000F0E25F2EF02D0F2EFDE92F2EF0E23F2EF8
:100DC000F02DC5ECD0E2E7DD52DEF301A080B1806A
:100DD000C280D380F401E080F180F20100811181B2
:100DE000F10120813181EBE9F0E240815181E9E9B3
:100DF000F0E2608171818B818F938A818F938981E9
:100E00008F9388818F93E7E9F0E2808191813EDBC7
:100E10000F900F900F900F90D6CF1F920F920FB69A
:100E20000F92112408B60F9218BE09B60F9219BE80
:100E30000BB60F921BBE2F933F934F935F936F930D
:100E40007F938F939F93AF93BF93EF93FF9383EA27
:100E500090E287DFFF91EF91BF91AF919F918F91CA
:100E60007F916F915F914F913F912F910F900BBEAA
:100E70000F9009BE0F9008BE0F900FBE0F901F90ED
:100E800018955058BB27AA270ED075C166D130F0EF
:100E90006BD120F031F49F3F11F41EF45BC10EF4CE
:100EA000E095E7FB51C1E92F77D180F3BA176207CC
:100EB00073078407950718F071F49EF58FC10EF43F
:100EC000E0950B2EBA2FA02D0B01B90190010C015A
:100ED000CA01A0011124FF27591B99F0593F50F472
:100EE000503E68F11A16F040A22F232F342F4427CA
:100EF000585FF3CF469537952795A795F0405395C2
:100F0000C9F77EF41F16BA0B620B730B840BBAF091
:100F10009150A1F0FF0FBB1F661F771F881FC2F7FC
:100F20000EC0BA0F621F731F841F48F48795779510
:100F30006795B795F7959E3F08F0B3CF9395880FC7
:100F400008F09927EE0F979587950895D9D008F462
:100F500081E008950CD00FC107D140F0FED030F0F1
:100F600021F45F3F19F0F0C0511139C1F3C014D121
:100F700098F39923C9F35523B1F3951B550BBB2760
:100F8000AA2762177307840738F09F5F5F4F220F0D
:100F9000331F441FAA1FA9F333D00E2E3AF0E0E806
:100FA00030D091505040E695001CCAF729D0FE2F52
:100FB00027D0660F771F881FBB1F261737074807E4
:100FC000AB07B0E809F0BB0B802DBF01FF2793589A
:100FD0005F4F2AF09E3F510568F0B6C000C15F3FE9
:100FE000ECF3983EDCF3869577956795B795F79582
:100FF0009F5FC9F7880F911D9695879597F908957A
:10100000E1E0660F771F881FBB1F62177307840715
:10101000BA0720F0621B730B840BBA0BEE1F88F724
:10102000E095089504D06894B111D9C00895BCD05A
:1010300088F09F5790F0B92F9927B751A0F0D1F0C1
:10104000660F771F881F991F1AF0BA95C9F712C04B
:10105000B13081F0C3D0B1E00895C0C0672F782FC0
:101060008827B85F39F0B93FCCF3869577956795B7
:10107000B395D9F73EF490958095709561957F4F23
:101080008F4F9F4F0895E89409C097FB3EF49095C9
:101090008095709561957F4F8F4F9F4F9923A9F051
:1010A000F92F96E9BB279395F695879577956795E0
:1010B000B795F111F8CFFAF4BB0F11F460FF1BC024
:1010C0006F5F7F4F8F4F9F4F16C0882311F096E9B7
:1010D00011C0772321F09EE8872F762F05C0662365
:1010E00071F096E8862F70E060E02AF09A95660F1E
:1010F000771F881FDAF7880F9695879597F90895D7
:10110000990F0008550FAA0BE0E8FEEF1616170618
:10111000E807F907C0F012161306E407F50798F080
:10112000621B730B840B950B39F40A2661F0232B99
:10113000242B252B21F408950A2609F4A140A69515
:101140008FEF811D811D089597F99F6780E870E0FA
:1011500060E008959FEF80EC089500240A9416162D
:10116000170618060906089500240A941216130695
:10117000140605060895092E0394000C11F4882323
:1011800052F0BB0F40F4BF2B11F460FF04C06F5F3F
:101190007F4F8F4F9F4F089557FD9058440F551F15
:1011A00059F05F3F71F04795880F97FB991F61F0E9
:1011B0009F3F79F087950895121613061406551F60
:1011C000F2CF4695F1DF08C0161617061806991FCC
:1011D000F1CF86957105610508940895E894BB27C1
:1011E00066277727CB0197F908950BD0C4CFB5DFD9
:1011F00028F0BADF18F0952309F0A6CFABCF112461
:10120000EECFCADFA0F3959FD1F3950F50E0551FA5
:10121000629FF001729FBB27F00DB11D639FAA274B
:10122000F00DB11DAA1F649F6627B00DA11D661F9A
:10123000829F2227B00DA11D621F739FB00DA11DBB
:10124000621F839FA00D611D221F749F3327A00D75
:10125000611D231F849F600D211D822F762F6A2F11
:1012600011249F5750408AF0E1F088234AF0EE0F96
:10127000FF1FBB1F661F771F881F91505040A9F7A3
:101280009E3F510570F060CFAACF5F3FECF3983ED0
:10129000DCF3869577956795B795F795E7959F5F0A
:1012A000C1F7FE2B880F911D9695879597F90895A4
:1012B000A1E21A2EAA1BBB1BFD010DC0AA1FBB1F5A
:1012C000EE1FFF1FA217B307E407F50720F0A21BCC
:1012D000B30BE40BF50B661F771F881F991F1A9439
:1012E00069F760957095809590959B01AC01BD0163
:1012F000CF0108950F931F93CF93DF93CDB7DEB740
:101300002E97CDBFDEBF0E891F8986E08C830983AF
:101310001A838FEF9FE78D839E83AE01465E5F4FFA
:10132000688D798DCE0101960DD0EF81F885E00FA3
:10133000F11F10822E96CDBFDEBFDF91CF911F919E
:101340000F9108952F923F924F925F926F927F92EA
:101350008F929F92AF92BF92CF92DF92EF92FF92C5
:101360000F931F93CF93DF93CDB7DEB72C97CDBFED
:10137000DEBF7C016B018A01FC011682178283812A
:1013800081FFB0C1CE0101964C01F7019381F601B6
:1013900093FD859193FF81916F01882309F49EC18C
:1013A000853239F493FD859193FF81916F018532E8
:1013B00021F4B70190E0C4D1E8CF512C312C20E0CA
:1013C0002032A0F48B3269F030F4803259F083324D
:1013D00069F420612CC08D3239F0803339F42160FA
:1013E00026C02260246023C0286021C027FD27C0BA
:1013F00030ED380F3A3078F426FF06C0FAE05F9EF1
:10140000300D1124532E13C08AE0389E300D112464
:10141000332E20620CC08E3221F426FD5FC1206481
:1014200006C08C3611F4206802C0883641F4F601FB
:1014300093FD859193FF81916F018111C1CF982F09
:101440009F7D9554933028F40C5F1F4FFFE3F98381
:101450000DC0833631F0833771F0833509F057C002
:1014600021C0F801808189830E5F1F4F442443947B
:10147000512C540114C03801F2E06F0E711CF801B8
:10148000A080B18026FF03C0652D70E002C06FEF21
:101490007FEFC5012C8749D12C0183012C852F7743
:1014A000222E16C03801F2E06F0E711CF801A080E8
:1014B000B18026FF03C0652D70E002C06FEF7FEFA3
:1014C000C5012C8727D12C012C852068222E830171
:1014D00023FC19C0832D90E048165906A0F4B701EB
:1014E00080E290E02DD13A94F5CFF50127FC85916B
:1014F00027FE81915F01B70190E022D131103A942B
:10150000F1E04F1A51084114510479F7DEC08436D6
:1015100011F0893631F5F80127FF07C0608171812C
:10152000828193810C5F1F4F08C060817181882781
:1015300077FD8095982F0E5F1F4F2F76B22E97FF65
:1015400009C090958095709561957F4F8F4F9F4F03
:101550002068B22E2AE030E0A40124D1A82EA818D9
:1015600043C0853729F42F7EB22E2AE030E025C013
:10157000F22FF97FBF2E8F36C1F018F4883579F03D
:10158000ADC0803719F0883721F0A8C02F2F206117
:10159000B22EB4FE0DC08B2D8460B82E09C024FF7E
:1015A0000AC09F2F9660B92E06C028E030E005C023
:1015B00020E130E002C020E132E0F801B7FE07C0D0
:1015C00060817181828193810C5F1F4F06C06081B1
:1015D000718180E090E00E5F1F4FA401E3D0A82E40
:1015E000A818FB2DFF77BF2EB6FE0BC02B2D2E7F2C
:1015F000A51450F4B4FE0AC0B2FC08C02B2D2E7EF8
:1016000005C07A2C2B2D03C07A2C01C0752C24FF29
:101610000DC0FE01EA0DF11D8081803311F4297E99
:1016200009C022FF06C07394739404C0822F867889
:1016300009F0739423FD12C020FF06C05A2C7314C6
:1016400018F4530C5718732C731460F4B70180E22C
:1016500090E02C8775D073942C85F6CF731410F41A
:10166000371801C0312C24FF11C0B70180E390E08E
:101670002C8766D02C8522FF16C021FF03C088E589
:1016800090E002C088E790E0B7010CC0822F867816
:1016900051F021FD02C080E201C08BE227FD8DE206
:1016A000B70190E04DD0A51430F4B70180E390E08D
:1016B00047D05A94F8CFAA94F401EA0DF11D808125
:1016C000B70190E03DD0A110F6CF332009F45DCEF4
:1016D000B70180E290E034D03A94F7CFF7018681E9
:1016E000978102C08FEF9FEF2C96CDBFDEBFDF91B9
:1016F000CF911F910F91FF90EF90DF90CF90BF900F
:10170000AF909F908F907F906F905F904F903F90A1
:101710002F900895FC010590615070400110D8F79A
:10172000809590958E0F9F1F0895FC016150704029
:1017300001900110D8F7809590958E0F9F1F089506
:101740000F931F93CF93DF93182F092FEB018B81FA
:1017500081FD03C08FEF9FEF20C082FF10C04E813C
:101760005F812C813D81421753077CF4E881F98128
:101770009F012F5F3F4F28833983108306C0E88580
:10178000F985812F1995892B29F72E813F812F5FAC
:101790003F4F2E833F83812F902FDF91CF911F9159
:1017A0000F910895FA01AA27283051F1203181F1D3
:1017B000E8946F936E7F6E5F7F4F8F4F9F4FAF4F59
:1017C000B1E03ED0B4E03CD0670F781F891F9A1F6C
:1017D000A11D680F791F8A1F911DA11D6A0F711D20
:1017E000811D911DA11D20D009F468943F912AE02C
:1017F000269F11243019305D3193DEF6CF01089514
:10180000462F4770405D4193B3E00FD0C9F7F6CF44
:10181000462F4F70405D4A3318F0495D31FD40520C
:10182000419302D0A9F7EACFB4E0A69597958795A2
:1018300077956795BA95C9F7009761057105089581
:101840009B01AC010A2E069457954795379527952D
:10185000BA95C9F7620F731F841F951FA01D0895C5
:04186000F894FFCF2A
:10186400010048A21E50726573737572653A202593
:101874006C640054656D70657261747572653A20AC
:04188400256C64006B
:00000001FF
